:020000040800F2
:10000000101B0020F50100083D2B0008C12A000844
:10001000392B0008B1020008FD490008000000006B
:10002000000000000000000000000000452B000858
:100030000503000800000000412B0008492B0008C0
:100040000F0200080F0200080F0200080F0200084C
:100050000F0200080F0200080F0200080F0200083C
:100060000F0200080F0200080F0200080F0200082C
:100070000F0200080F0200080F0200080F0200081C
:100080000F0200080F0200080F0200080F0200080C
:10009000994800080F0200080F0200080F0200082C
:1000A0000F0200080F0200080F0200080F020008EC
:1000B0000F0200080F0200080F0200080F020008DC
:1000C0000F0200080F0200080F0200080F020008CC
:1000D0000F0200085D2C0008692C00080F020008C0
:1000E0000F0200080F0200080F02000800F002F8DB
:1000F00000F070F814A696E8000CB244B344DA4558
:1001000001D100F067F8BAE80F000FA696E83000BA
:10011000A5EB040504EB0607AAEB0704A7F101070A
:100120004FEA15154FEA3414A4F10104AC4201D38F
:1001300000F050F813F0010F18BFFB1A43F0010351
:1001400000F001F8DBE71847584B0000784B00003F
:100150000A444FF0000C10F8013B13F0070408BFED
:1001600010F8014B1D1108BF10F8015B641E05D08B
:1001700010F8016B641E01F8016BF9D113F0080F40
:100180001EBF10F8014BAD1C0C1B09D16D1E58BFD2
:1001900001F801CBFAD505E014F8016B01F8016B09
:1001A0006D1EF9D59142D6D370470000704700000C
:1001B0000023002400250026103A28BF78C1FBD870
:1001C000520728BF30C148BF0B6070471FB51FBD25
:1001D00010B510BD00F031F81146FFF7F7FF04F03D
:1001E0000FFC00F04FF803B4FFF7F2FF03BC00F080
:1001F00057F800000948804709480047FEE7FEE736
:10020000FEE7FEE7FEE7FEE7FEE7FEE7FEE7FEE7C6
:1002100004480549054A064B704700004D2B00086D
:10022000ED00000810150020101B00201017002002
:1002300010170020704770477047754600F02CF883
:10024000AE4605006946534620F00700854618B0C3
:1002500020B5FFF7DDFFBDE820404FF000064FF06E
:1002600000074FF000084FF0000BAC46ACE8C009A7
:10027000ACE8C009ACE8C009ACE8C00921F007014E
:100280008D46704710B50446AFF300802046BDE8A8
:100290001040FFF7A8BF0000004870478001002011
:1002A00001491820ABBEFEE726000200704700009F
:1002B000FEE70000002070470020704710B540F6B0
:1002C0007C64C2F2000440F67C21C2F200012046A8
:1002D000002202F0CFFD40F27C61C2F20001204614
:1002E00002F0C2FD002010BD10B540F67C64C2F2E1
:1002F00000040146204602F0B7FD204602F096FDBC
:10030000002010BD70470000EFF3108072B600BFF0
:10031000FEE7000010B581B00022009290F8242082
:10032000012A03D10221084601B010BD4B68012209
:10033000062B80F8242033D8D0F800C003EB8303C9
:100340005A1F1F23DCF834E003FA02F40B682EEA8C
:10035000040403FA02F22243CCF83420092B03EB05
:10036000430249D9DCF80CE01E3A0724896894401E
:100370002EEA0404914023F001022143102ACCF814
:100380000C1043D142F20841C4F20101A1F108026C
:10039000944543D0816A41F020018162012136E019
:1003A000D0F800C00C2B03EB830213D8233A1F2391
:1003B000DCF830E003FA02F40B682EEA040403FAD6
:1003C00002F22243CCF83020092B03EB4302C9D8B8
:1003D00012E000BF413A1F23DCF82CE003FA02F4DC
:1003E0000B682EEA040403FA02F22243CCF82C2014
:1003F000092B03EB4302B5D8DCF8103007248968D9
:100400009440A34391401943CCF8101000210022DE
:1004100080F82420084601B010BD00BF0A6812020F
:10042000F4D40A68102B42F400020A60EED140F2C4
:100430002401C2F2000109684DF68362C4F21B3246
:10044000A1FB0212910C01EB81014900009100997E
:100450000029DBD000990139009100990029D5D0FD
:1004600000990139009100990029CFD000990139F4
:10047000009100990029C9D0009901390091009993
:1004800000294FF00001E5D1C1E70000002804BFBA
:1004900001207047B0B50446806A28B12168886899
:1004A000C0070CD115E000BF0020E06284F82400F2
:1004B000204600F09BF821688868C00709D088684A
:1004C00020F00100886000F04FFA21688A68D207A6
:1004D00026D1A06AC0063AD4A06A41F20212904323
:1004E0000230A062E069D4E9013240EA030C531EF5
:1004F000B3FA83F35D091346B2F5807F18BF2B0270
:10050000207D257B01284CEA450030D135B3A56A12
:1005100045F02005A562E56A45F00105E56226E0A3
:10052000054602E08868C007D3D000F01DFA401BE2
:1005300021680328F6D38868C007F3D0A06A40F08A
:100540001000A062E06A40F00100E062A06AA06AC8
:1005500040F01000A0620120B0BD00BFD4F818C068
:100560004EF60005CFF6FF7505EB4C352B434D6875
:10057000B2F5807F25F4694543EA05034B608B683B
:100580004FF2FD75CFF6E17503EA050343EA000378
:100590008B6001D0012A07D122690023CFF6F073C6
:1005A00003EB025201E000BF0022CB6A23F4700388
:1005B0001A43CA62896840F6FE62CFF61F72114084
:1005C000814207D10020E062A16A012262F30101A9
:1005D000A162B0BDA06A40F0100020F00200A0624D
:1005E000E06A40F00100E0620120B0BD80B586B055
:1005F000014640F60000C4F20100096800F5E0522F
:1006000091424FF00001CDE9041101D006B080BD48
:1006100041F21801C4F202010A6842F400720A6051
:100620000A6802F400720192019A0A6842F0040218
:100630000A60096801F004010191019910210291F9
:100640000321039102A900F081F806B080BD0000EB
:10065000014690F82100022816D10868D1E90FC39D
:10066000026822F00E020260026822F001020260BB
:10067000012000FA03F2CCF8042081F821000020C8
:10068000002281F820207047042088630120002286
:1006900081F820207047000090F82110022923D112
:1006A0000268116821F00E0111602F211368C4F255
:1006B00002018A4240F20401C4F2020123F0010364
:1006C000136015DD3023C4F202039A421CD0442388
:1006D000C4F202039A421BD05823C4F202039A4286
:1006E0001CD14FF4803321E0042181630120704745
:1006F0000823C4F202039A420ED01C23C4F2020360
:100700009A420BD1102311E04FF480730EE000BF2A
:100710004FF480530AE000BF012307E001F1680CA9
:100720004FF08073624508BF4FF480130B600121C6
:1007300080F82110426B002180F8201022B180B592
:1007400090470021BDE88040084670472DE9F04FF2
:1007500082B00E68002E00F0FD8041F20042C4F22B
:100760000102042340F2004E904208BF03234FF6DB
:10077000FF7CC4F2010E009300240123C1F2100C8F
:100780004FF0000A4FF0000944E000BF012704F0D9
:100790000C030F229A402BEA020207FA03F34FEAF6
:1007A0009A051A4346F825204E6840F20C45F2029D
:1007B000DEF8082054BF22EA080242EA0802C4F226
:1007C0000105CEF808202A68B30254BF22EA0802C5
:1007D00042EA08022A60B303DEF8042054BF22EA8A
:1007E000080242EA0802F303CEF80420DEF80020F3
:1007F0004FF0010354BF22EA080242EA0802CEF891
:1008000000200E680AF1010A36FA0AF204F1040423
:1008100000F0A08003FA0AFB16EA0B08F1D04E683C
:10082000664511DC122E55D8DFE806F0340A44483C
:10083000545454545454545454545454544C5000D8
:10084000D1F80C9046E000BF4FF6FF72C1F22102D2
:1008500096420FDC0022C1F2110296421AD0002209
:10086000C1F21202964215D00022C1F22102964234
:1008700010D02FE00022C1F2220296420AD00022BC
:10088000C1F23102964205D00022C1F232029642F4
:1008900020D100BF8A684AB1012A14BFC0F814B041
:1008A000C0F810B04FF0080914E000BF4FF0040981
:1008B00010E000BFCA6802F108090BE04FF0000920
:1008C00008E000BFCA6802F1040903E0CA6802F147
:1008D0000C0900BF22460646B8F5807F24BF203AA7
:1008E000043637680F25954027EA050509FA02F214
:1008F0002A433260CA79D2067FF583AF41F21803EA
:10090000C4F202031A68AEF57E7642F001021A6064
:100910001A6802F001020192019A2AF0030256F8C5
:1009200002B040F60002C4F20102904210D040F63C
:100930000042C4F2010290423FF428AF41F20002AB
:10094000C4F20102009F904208BF02271FE700BFC8
:1009500000271CE702B0BDE8F08F0000002A08BFA6
:10096000090401617047000041F20850C2F2000022
:1009700000687047002804BF01207047F0B581B0BF
:10098000044690F83D0028B9002084F83C00204639
:1009900000F0A2F8242084F83D002068016821F0CE
:1009A00001010160016841F400410160016821F426
:1009B0000041016001F09EFA636848F2A16CC0F248
:1009C000010C40F60011C0F23D0163453CBF48F206
:1009D0008041C0F21E01884202D2012001B0F0BD68
:1009E0004DF68361C4F21B31A0FB01122168970C04
:1009F000D1F804E04FF496762EF03F0545EA924593
:100A00004D60774348F638160D6AC0F24106A7FBE1
:100A1000067625F03F07634538BF960C721C3A43B3
:100A20000A62CA6948F2A0664CF6FF77C0F2010676
:100A3000B34222EA07020BD801385B00B0FBF3F0A7
:100A400001306FF31F30042898BF04201BE000BF63
:100A5000A768013857B119277B43B0FBF3F0013089
:100A60006FF31F3070B100F5804007E003EB4303E4
:100A7000B0FBF3F001306FF31F3018B100F5004008
:100A800001E000BF01201043C8610868D4E90723D2
:100A900020F0C000104318430860886848F2FF3215
:100AA00004F10C0790438CCF18431043A66988606B
:100AB000C86820F0FF0038433043C860086840F041
:100AC0000100086000202021206484F83D1020638C
:100AD00084F83E0001B0F0BD10B586B0006845F660
:100AE0000001C4F2000188424FF00001CDE9041179
:100AF000CDE9021128D045F20041C4F2000188423C
:100B000046D141F21804C4F20204206802A940F060
:100B100008002060206800F0080001900198C020C3
:100B20000290122003900320059040F60040C4F28A
:100B30000100FFF70BFE606840F400106060606821
:100B400000F4001022E000BF41F21804C4F20204D5
:100B5000206802A940F008002060206800F008002A
:100B6000019001984FF440600290122003900320FE
:100B7000059040F60040C4F20100FFF7E7FD606811
:100B800040F480006060606800F48000019001988B
:100B900006B010BD40F2000041F20851C2F2000060
:100BA000C2F2000100780A68104408607047000033
:100BB00080B542F20000C4F20200016841F0100169
:100BC0000160032000F08CF80F2000F005F800F021
:100BD00027F8002080BD000070B540F20006C2F288
:100BE000000640F224013278C2F200014FF47A7319
:100BF0000968B3FBF2F20446B1FBF2F1084601F0DA
:100C0000A1FB0F2C4FF0010508D838B94FF0FF3089
:100C100021460022002500F037F87460284670BD98
:100C200082B041F21800C4F202000168022241F0D1
:100C300001010160016801F0010101910199416820
:100C400041F080514160406800F080500090009871
:100C50000420C4F20100016862F31A61016002B06D
:100C600070470000002848BF704700F01F010122B4
:100C700002FA01F11C2202EAD0004EF20012CEF27A
:100C8000000281507047000010B54EF60C5CCEF2A9
:100C9000000CDCF80030C3F3022E8EF00704042CA5
:100CA00028BF0424BEF103034FF0FF3E0EFA04F404
:100CB00038BF0023A14399400EFA03F39A4311432E
:100CC00000F00F0200F160430901043A03F56443A8
:100CD0006244002848BF02F10C03197010BD0000E7
:100CE0004EF60C51CEF200010A684FF6FF031A408F
:100CF00060F30A2242F0806040F0FD7008607047A7
:100D000080B501F0070C0CEB8C0C00EBCC0C01EB6C
:100D1000810E0CF1100C00EBCE00090658BF00F557
:100D2000A87C0020002A19BFCCF808300121ACF8BB
:100D3000063000218CF80C1080BD000070470000C8
:100D400001EB8102D0F8D43200EBC200426A1846AF
:100D500002F01ABB01EB8102D0F8D43200EBC200E2
:100D6000D0F86421184602F075BB000010B50446A7
:100D700048B2B0F1FF3F01F0070000EB800104EB47
:100D8000C10205DD02F5A871002382F8513103E0AC
:100D9000012302F11001537494F890220870012A83
:100DA00004BF022010BD2068012284F8902203F0C5
:100DB0007DF8002084F8900210BD0000B0B5044614
:100DC000007901F00F02824284BF0120B0BD48B219
:100DD000B0F1FF3F01F0070000EB800104EBC1021E
:100DE00006DD02F5A871002382F8513104E000BF4E
:100DF000012302F11001537494F890220025012A76
:100E00008D70087004BF0220B0BD2068012284F8F4
:100E1000902203F0DBF8284684F89052B0BD000021
:100E200001F0070101EB810100EBC100D0F86C017A
:100E30007047000070B5064648B2B0F1FF3F01F0C0
:100E4000070000EB800107DD06EBC10404F5A87183
:100E5000002584F8515106E006EBC10C01240CF189
:100E600010018CF8114008700A61022BCB7004BF8E
:100E70000020087196F89002012804BF022070BD7E
:100E80003068012286F8902202F0CCFE002086F81D
:100E9000900270BD10B501F0070C0CEB8C0100EB5B
:100EA000C10E00680EF5A8710024CEF86421CEF8BA
:100EB0006831CEF86C418EF851418EF850C103F084
:100EC000DFF8002010BD0000B0B50446007901F045
:100ED0000705854284BF0120B0BD48B2B0F1FF3F95
:100EE0000ADD01EB810004EBC00000F5A8710022CF
:100EF00080F8512108E000BF05EB850004EBC0003D
:100F0000012200F11001427494F89002012201289C
:100F10008A700D7004BF0220B0BD206884F8902252
:100F200003F094F825B1002084F89002B0BD00BF12
:100F3000206804F5267103F047F8002084F8900239
:100F4000B0BD000080B501F0070C0CEB8C0100EB8C
:100F5000C10101F810CF00684FF0010C01F1140736
:100F600081F824C04FF0000E87E80C400B6281F836
:100F700001C003F085F8002080BD00002DE9F04F8E
:100F800081B00446006803F08DFC01041ED44105C5
:100F900000F1F683410400F10584810400F11A8414
:100FA000C10400F12184010500F13884810500F1BC
:100FB0008784C00540F1F2832068B0F8441021F422
:100FC0008071A0F8441001B0BDE8F08F2068B0F93E
:100FD0004410B1F1FF3F00F3E18304F5267140F6C0
:100FE0000F7B009123E000BFB0F8501094F850211F
:100FF00000EB410101EB0211B1F80C34B4F85621B9
:1010000000996FF39F23C4F86C3103F04FFC206804
:10101000018801EA0B0180310180204600F0D0FDFB
:101020002068B0F94410B1F1FF3F00F3B783B0F886
:10103000442012F00F090DD030F929104FEA490A67
:10104000B1F1FF3F1FFA81F830DD5FEA0860E7D5B4
:1010500062E100BF0188D2066CD401EA0B0101F500
:1010600000410180B0F85010227C00EB410000EB01
:101070000210B0F80404616A6FF39F20E062084434
:10108000606220460021FFF75BFE607B0028C7D02E
:10109000A06A0028C4D1607B216840F08000C0B203
:1010A000A1F84C0000206073BAE700BF30F81A10B6
:1010B00040F60F7C01EA0B01803120F81A1009EB91
:1010C000890104EBC10B9BF85C110BF5A876002994
:1010D00000F082809BF85311022940F08F80B0F815
:1010E00050703178DBF8683100EB47070BF5B472CC
:1010F0005FEA484507EB011700F19A80B7F80C74D6
:1011000000256FF39F27DB1B38BF2B46136040F28F
:10111000A5805FEA486200F1B18030F8212048F2F2
:10112000C00302EA0C021A4320F82120002F40F0ED
:10113000A680CBE00A053FF557AF09B2B1F1FF3FFA
:101140003FF76EAF018801EA0B0180310180B0F8F2
:10115000501094F8502100EB410101EB0211B1F85D
:101160000C346FF39F23C4F86C3193B1D4F864113D
:1011700079B1B4F8562103F099FBD4F86401D4F89E
:101180006C110844C4F8640120460021FFF7E2FD19
:10119000206801880A053FF543AF01F44051B1F5DD
:1011A000405F3FF43DAFB0F8501000F20C42535A8C
:1011B0006FF39F235352D4F860313F2BC0F0068267
:1011C000DE068E5A4FEA53174FF0FF3508BF05EB86
:1011D000531746EA872378E2B0F85010327800EBD4
:1011E000410101EB0211B1F80C746FF39F27002F3E
:1011F0006CD0DBF86411BBF8562162E0327848F21B
:10120000C00330F8221001EA0C01194320F8221023
:1012100030F82230B0F8501000EB02125B0402EB01
:10122000410115D4B1F80C746FF39F273FBB4DE01B
:10123000B7F8047400256FF39F27DB1B38BF2B46DC
:10124000136021D95FEA48622DD4B7BB3EE000BFEE
:10125000B1F804746FF39F277FBB37E030F821208B
:1012600043F60F731A404CF28003A3F500535A4023
:1012700020F821205FEA48627FF54FAF37B3DBF8F3
:101280006411BBF85A211CE030F8212043F60F739B
:101290001A404CF28003A3F500535A4020F8212055
:1012A0005FEA4862D1D530F8212048F2C00302EA53
:1012B0000C021A4320F8212047B1DBF86411BBF877
:1012C00058213B4603F0F2FA01E000BF0027DBF8AB
:1012D0006C11DBE9590239443844CBF86C11CBF876
:1012E00064011AB1DBF86001B8420BD931782046AD
:1012F000FFF730FD40F60F7B5FEA08607FF590AEA8
:101300000AE000BF2068314602F0BAFE40F60F7BCB
:101310005FEA08607FF584AE206809EB890130F848
:101320001A2004EBC10502EA0B0101F5004120F887
:101330001A10E97C05F11009012923D1297F002920
:101340004FF00001A96200F03B815FEA486100F1C3
:101350008780697C012900F01D81002940F03081DF
:10136000B0F8501099F80020084400EB0210B0F8D3
:101370000C146FF39F21A0F80C14B0F80C1441F476
:1013800000410FE15FEAC8511ED4B0F8502099F82F
:10139000001000EB420202EB0112B2F80424AB6A27
:1013A0006FF39F229B1A4FF0000738BF3B46AB629A
:1013B00040F20881696AEB6A114469629918E9622E
:1013C000494602F05DFE2BE6B0F8507099F8001027
:1013D0002A4652F8286F5FEA486300EB011C59D493
:1013E0000CF20C4E3EF8177000236FF39F27F61B8C
:1013F00038BF1E46166040F285805FEA484208D436
:1014000030F821204CF2800302EA0B021A4320F844
:1014100021202A4612F8341F012940F0A0812B46D2
:1014200053F8308F53E904C153F8046C39443E44F7
:10143000E04543F80C1C43F8046C80F0FF80B8F1E1
:10144000000F00F059810027C4461F6017706A7CA6
:10145000012A40F0FA80B0F850202EF802C071E165
:10146000697C012900F0A280002940F0A980B0F831
:10147000501099F80020084400EB0210B0F8041452
:101480006FF39F21A0F80414B0F8041441F4004154
:1014900094E000BF0CF2044E3EF8177000236FF387
:1014A0009F27F61B38BF1E4616604FD95FEA484299
:1014B00008D530F821204CF2800302EA0B021A43CF
:1014C00020F821202B4613F8341F012940F04781D2
:1014D0002A4652F830CF52E9046152F8048C39445C
:1014E000B844B44542F80C1C42F8048C80F0C88023
:1014F0004FF00008BCF1000F83F8008040F0C3807B
:10150000BC46C2E06A7C012A6AD0002A71D1B0F8D8
:1015100050206244B2F804346FF39F23A2F80434DD
:10152000B2F8043443F40043A2F80434B0F8500095
:101530003EF800206FF39F222EF800203EF8002096
:1015400042F400422EF8002053E000BF6A7C012ADA
:1015500056D0002A5DD1B0F850203EF802706FF3EB
:101560009F272EF802703EF8027047F400472EF8CD
:101570000270B0F850006044B0F80C246FF39F2262
:10158000A0F80C24B0F80C2442F40042A0F80C247B
:101590003FE000BFB0F8501099F80020084400EB7D
:1015A00002100021A0F80C140AE000BFB0F850109F
:1015B00099F80020084400EB02100021A0F8041460
:1015C00099F800102046FFF7BBFB29E5002B7BD0E4
:1015D00003F00107565A07EB530346EA832379E0E9
:1015E000B0F850206244A2F80434B0F850002EF84D
:1015F00000302046FFF7A4FB5FEA484010D5AEE07C
:10160000B0F850202EF80230B0F850006044A0F836
:101610000C342046FFF794FB5FEA484040F19F807E
:10162000206899F800104CF2800330F8212002EA7B
:101630000B021A4320F8212091E000BFA8EB0C0216
:101640001A606A7C012A3FF406AF002A7AD1B0F80A
:101650005070BCF13F0F3EF807206FF39F222EF829
:10166000072051D35FEACC634FEA5C123EF80730A3
:101670004FF0FF3608BF06EB5C1243EA82225DE0C2
:10168000ACEB0608B446C2F800806A7C012A2DD073
:10169000002A5FD1B0F85070BCF13F0F3EF8072030
:1016A0006FF39F222EF807203AD35FEACC634FEA0C
:1016B0005C123EF807304FF0FF3608BF06EB5C12B5
:1016C00043EA822242E000BF535A48F20007CFF6B5
:1016D000FF773B438B52018843F60F7211404CF267
:1016E0008002A2F580525140018099E4B0F8502068
:1016F0002EF802C02EE000BF00231370BC466A7CA7
:10170000012AA2D1A7E600BFBCF1000F14D00CF053
:1017100001023EF8073002EB5C0243EA82220FE04E
:10172000BCF1000F10D00CF001023EF8073002EBC4
:101730005C0243EA82220BE03EF8072042F40042BA
:101740002EF807206A8B06E03EF8072042F400429C
:101750002EF807202A8B1FFA8CF303F001F920687A
:1017600099F8001040F63F7330F821201A4048F2F3
:10177000C003103B5A4020F82120FFF751BC00BFA6
:101780002068B0F8441021F48061A0F8441020468D
:1017900000F0E8F994F8900201280DD101B0BDE8FD
:1017A000F08F00BF2068B0F8441021F48041A0F809
:1017B000441001B0BDE8F08F0120002584F89002AC
:1017C00065732068002103F0C3F884F8905201B0DB
:1017D000BDE8F08F2068B0F8441021F40051A0F863
:1017E000441001B0BDE8F08F2068B0F8401021F03F
:1017F0000401A0F84010B0F8401021F00801A0F852
:101800004010204600F0C0F92068B0F8441021F4E0
:101810008051A0F8441001B0BDE8F08F2168B1F804
:1018200000C0B1F804E0B1F808808F890E8A8D8A73
:10183000088B8A8BB1F8403043F00103A1F84030A7
:10184000B1F8403023F00103A1F84030B1F8443042
:101850005B050CD4B1F844305B055CBFB1F8443093
:101860005FEA435303D4B1F844305B05EED5B1F8D9
:10187000443023F48063A1F84430A1F800C0A1F8FB
:1018800004E0A1F808808F810E828D8208838A830C
:10189000B1F8400040F00800A1F84000B1F8440061
:1018A00020F40060A1F84400B1F8400040F00402C8
:1018B0002046A1F8402001B0BDE8F04F00F0A2B9E9
:1018C0002168B1F8440020F400722046A1F84420B9
:1018D00001B0BDE8F04F00F05BB9000070B5002822
:1018E00000F01281044690F8910228B9002084F893
:1018F0009002204600F014F9032084F89102206839
:101900000021617102F056FB94E80700237B02F08E
:10191000CBFA002840F0F5802068002103F016F88B
:10192000002840F0EE8094F804E0BEF1000F00F0D3
:10193000E2800EF0030CBEF1040F4FF0000237D32B
:101940000EF0FC03A4F1A00503200121C61E85F8BA
:10195000B060861E85F8D860461E85F8006185F85F
:101960002801061D013085F8B11085F8B320C5E9BE
:101970003022C5F8C82085F8D91085F8DB20C5E9E4
:101980003A22C5F8F02085F8011185F80321C5E950
:101990004422C5F8182185F8291185F82B21C5E9BD
:1019A0004E22C5F84021A03598423046CED1F21ED5
:1019B000BCF1000F29D002EB820004EBC00301212F
:1019C0000020BCF1010F59741A74D874C3E90800DF
:1019D00098621AD0531C03EB830504EBC505BCF1D8
:1019E000020F69742B74E874C5E90800A8620CD072
:1019F000901C00EB800104EBC1010122087400205F
:101A00004A74C874C1E908008862BEF1000F72D040
:101A1000BEF1040F4FF0000236D30EF0FC0103209C
:101A2000234600BFC61E83F85061861E83F8786186
:101A3000461E83F8C801051D013083F8512183F843
:101A40005321C3E95822C3F8682183F8792183F828
:101A50007B21C3E96222C3F8902183F8A12183F896
:101A6000A06183F8A321C3E96C22C3F8B82183F8ED
:101A7000C92183F8CB21C3E97622C3F8E021A03342
:101A800088422846CED1EA1EBCF1000F33D002EBCB
:101A9000820004EBC0010020BCF1010F81F851016C
:101AA00081F8502181F85301C1E95800C1F868015B
:101AB00021D0511C01EB810304EBC303BCF1020FE5
:101AC00083F8510183F8501183F85301C3E958009A
:101AD000C3F868010FD0901C00EB800104EBC1013A
:101AE000002281F8512181F8500181F85321C1E988
:101AF0005822C1F8682194E80700237B02F04CFAD1
:101B000020B1022084F89102012070BD002501203F
:101B1000657384F89102206802F03CFA284670BD93
:101B2000006845F60041C4F20001884218BF7047C2
:101B300080B582B041F21C00C4F2020001680022AC
:101B400041F4000101600068002100F400000190F0
:101B500001981420FFF798F8142002B0BDE88040E7
:101B6000FFF780B810B504468079022818BFFEF749
:101B7000CBFBD4F8D402012101F06EFDD4F8D402DD
:101B8000BDE8104001F026BDD0F8D40201F04CBDF4
:101B9000D0F8D40201F052BD10B5044690F890027E
:101BA000012804BF022010BD012084F89002617357
:101BB000206802F0CDFE002084F8900210BD0000E5
:101BC000D0F8D42200F52671104601F05BBD00006C
:101BD00010B5044690F89002012804BF022010BD01
:101BE0002068012184F8901202F04CFE2046012169
:101BF000FFF7A4F8206802F0CBF9002084F89002E7
:101C000010BD000010B50446D0F8D40201F08EFDDE
:101C1000A07A002808BF10BD4EF61050CEF200008A
:101C2000016841F00601016010BD00002DE9F0419E
:101C300082B00446007841F21C06C007C4F20206D6
:101C40004AD030685FEAC00808D4306840F080505D
:101C50003060306800F080500190019847F2000732
:101C6000C4F200073868C00512D4386840F48070A8
:101C70003860FEF779FE05463868C00508D4FEF7DF
:101C800073FE401B6428F7D9032002B0BDE8F08141
:101C9000706810F4407012D0616801F4407188429D
:101CA0000DD0706840F24042C4F24222012320F479
:101CB000407113600023C0071360716026D1706803
:101CC000616820F440700843B8F1000F706003D4DD
:101CD000306820F0805030602068810707D556F8C2
:101CE000181CA26821F44041114346F8181CC00694
:101CF00007D556F8180CE16820F48000084346F830
:101D0000180C002002B0BDE8F08100BFFEF72CFEE9
:101D1000054641F2883700BF70688007CFD4FEF7D0
:101D200023FE401BB8424FF00300F5D9EAE700005C
:101D3000002804BF012070472DE9F04381B042F232
:101D40000008C4F202080446D8F800000D4600F06E
:101D5000070088420CD2D8F8000020F00700284382
:101D6000C8F80000D8F8000000F00700A8426CD1C5
:101D7000206841F204098107C4F2020917D541071E
:101D800005D5D9F8001041F4E061C9F80010010749
:101D900005D5D9F8001041F46051C9F80010D9F800
:101DA0000010A26821F0F0011143C9F80010C0072B
:101DB00042D1D8F8000000F00700A8420CD9D8F8AA
:101DC000000020F007002843C8F80000D8F8000001
:101DD00000F00700A84238D12068410707D5D9F89C
:101DE0000010E26821F4E0611143C9F80010000717
:101DF00008D5D9F80000216920F4605040EAC100FC
:101E0000C9F80000D9F8002002F00C00082841F2BF
:101E10000020C0F27A0051D144F69043C2F38341CE
:101E2000C0F60003595CD2033CD440F60010C0F267
:101E30003D00484342E000BF606802280AD0012804
:101E40002AD159F8041C890308D4012001B0BDE847
:101E5000F08300BF59F8041C8901F6D5D9F80010A9
:101E600021F003010843C9F80000FEF77DFD064696
:101E700041F28837D9F80000616800F00C00B0EB3F
:101E8000810F96D0FEF770FD801BB842F2D9032077
:101E900001B0BDE8F08300BF59F8041C8907D4D510
:101EA000DCE700BFD9F8002044F68E43C2F340427D
:101EB000C0F600039A5C4843B0FBF2F0D9F800107A
:101EC00044F67642C1F30311C0F60002515C40F2C1
:101ED000240220FA01F140F20400C2F2000000687E
:101EE000C2F200021160FEF777FE002001B0BDE8EB
:101EF000F083000040F2240041F20401C2F200002D
:101F0000C4F202010068096844F68642C1F3022166
:101F1000C0F60002515CC8407047000040F2240047
:101F200041F20401C2F20000C4F202010068096833
:101F300044F68642C1F3C221C0F60002515CC8409B
:101F400070470000002804BF012070472DE9F041D0
:101F500082B00446007841F20006C007C4F20206CF
:101F60000CD0706800F00C00042840F081803068CC
:101F7000800303D56068002800F04E812078800738
:101F80001BD5706810F00C0F09D0706800F00C00C1
:101F9000082840F08B807068C00300F187803068AB
:101FA000800703D52069012840F0368130686169D7
:101FB00020F0F80040EAC10030602078000713D418
:101FC000207840072CD4E569002D00F0208170684E
:101FD00000F00C00082840F0AF80012D40F00C818B
:101FE000012002B0BDE8F081A069002800F08C80DB
:101FF0000020C4F242200121C0F88014FEF7B4FC96
:10200000054600BF706A800700F1BA80FEF7ACFC9D
:10201000401B0228F6D9032002B0BDE8F08100BFC2
:10202000F0695FEAC00808D4F06940F08050F061C0
:10203000F06900F080500090009847F20007C4F269
:1020400000073868C0054DD4386840F480703860A7
:10205000FEF78AFC054600BF3868C00542D4FEF78B
:1020600083FC401B6428F7D9032002B0BDE8F0814F
:10207000706800F00C00082803D17068C0033FF5B9
:1020800076AF6068002800F00981B0F5A02F00F05D
:102090001D81B0F5803F00F01D81306820F4803054
:1020A0003060306820F4802017E100BF20690028EC
:1020B00040F20000C4F2422000F08C800121016057
:1020C000FEF752FC054600BF306880073FF56EAF53
:1020D000FEF74AFC401B0228F6D9032002B0BDE8F7
:1020E000F08100BFE068002800F09A80052800F029
:1020F000B180012800F0B280306A20F00100306227
:10210000306A20F00400ACE00020C4F2422000213C
:10211000C0F88014FEF728FC054600BF706A8007EF
:102120007FF54EAFFEF720FC401B0228F6D90320B6
:1021300002B0BDE8F08100BF0027C4F242270020B2
:102140003866FEF711FC022D05460DD1306880017E
:1021500040F1D680FEF708FC401B02284FF0030038
:10216000F4D902B0BDE8F081306880014FD5FEF7A8
:10217000FBFB401B02284FF00300F5D9F1E700BF3D
:1021800040F22400C2F20000006844F6D351C1F2CC
:102190006201A0FB0101480A019000BF00BF019845
:1021A000411E002801913FF40BAF00BF0198411E72
:1021B000002801913FF404AF00BF0198411E0028A0
:1021C00001913FF4FDAE00BF0198411E002801912E
:1021D000E4D1F5E600210160FEF7C6FB054600BF2D
:1021E000306880077FF5E9AEFEF7BEFB401B022892
:1021F0004FF00300F4D9B4E77068216A00F480322C
:102200008A4209D1616A00F47010884204D100202A
:1022100002B0BDE8F08100BF012002B0BDE8F0814E
:10222000306A20F001003062306A20F00400306231
:10223000FEF79AFB054641F2883700BF306A8007F7
:1022400022D5FEF791FB401BB8424FF00300F5D9B1
:1022500087E700BF306A40F004003062306A40F027
:1022600001003062FEF780FB054641F2883700BF6F
:10227000306A800708D4FEF777FB401BB842F7D9D5
:10228000032002B0BDE8F081B8F1000F3FF59BAE2E
:10229000F06920F08050F06195E600BF306820F4CE
:1022A00080303060306820F480203060FEF75CFBC6
:1022B000054600BF306880037FF560AEFEF754FB33
:1022C000401B64284FF00300F4D94AE7306840F41B
:1022D00080203060306840F480303060FEF744FB8E
:1022E000054600BF306880033FF548AEFEF73CFB73
:1022F000401B6428F6D9032002B0BDE8F08100BF7E
:10230000206AB0F5803F05D17168A26821F40031E0
:10231000114371607168626A21F4741111430843BA
:10232000706001203866FEF71FFB044630688001AC
:102330003FF56DAFFEF718FB001B02284FF00300BE
:10234000F4D90EE7411E0020B0EB116F1CBF012035
:1023500070474EF21002CEF2000251604EF6235149
:10236000CEF20001F0230B700721906011607047DE
:102370007047000070470000B0B582B004460068A6
:102380000168C368426901F02F05202D03F0200584
:1023900006D12DB1204602B0BDE8B04000F0DEBB52
:1023A0005FEA017C1EBF02F0010E03F4907212EB93
:1023B0000E0243D1226BCD0618D5012A16D113F097
:1023C000100213D00021019101680191416801912F
:1023D0000199406940063BD4A08DE18DE28D002A31
:1023E00018BF884240F0F28102B0B0BD0A0640F149
:1023F000E78013F0800200F0E38094F84110212977
:10240000F2D1A168B1F5805F03D12169002900F004
:102410006382216A4A1C226209784160E18C013999
:102420000A04E184E0D1C16821F08001C160C16883
:1024300041F04001C16002B0B0BD00BFCA0718BF83
:1024400013F4807240F0D0804A0700F1D380D8E0C6
:10245000E06B016849688AB2002AC5D0A38D9A4210
:10246000C2D2E1858069202800F09E80206850E873
:10247000030F216820F4807041E80302DAB120687C
:1024800050E8030F216820F4807041E8030292B104
:10249000206850E8030F216820F4807041E80302AF
:1024A0004AB1206850E8030F216820F4807041E8A9
:1024B0000302002ADAD1206850E8050F216820F0D5
:1024C000010041E80502C2B3206850E8050F216809
:1024D00020F0010041E805027AB3206850E8050FBA
:1024E000216820F0010041E8050232B3206850E87D
:1024F000050F216820F0010041E80502002ADAD129
:102500001BE000BF206850E8050F216820F0400064
:1025100041E80502DAB1206850E8050F216820F093
:10252000400041E8050292B1206850E8050F21689B
:1025300020F0400041E805024AB1206850E8050F4C
:10254000216820F0400041E80502002ADAD120206D
:1025500084F8420000202063206850E8030F2168BF
:1025600020F0100041E80302DAB1206850E8030FC0
:10257000216820F0100041E8030292B1206850E881
:10258000030F216820F0100041E803024AB12068DF
:1025900050E8030F216820F0100041E80302002AF0
:1025A000DAD1E06BFEF754F802206063A08DE18D74
:1025B000401A81B2204602B0BDE8B040FFF7D8BE55
:1025C00049067FF511AF13F040013FF40DAFC1682C
:1025D00021F04001C1602021204684F8411002B062
:1025E000BDE8B04000F06ABA626C42F00102626479
:1025F0004A0706D5BEF1000F03D0626C42F002021A
:1026000062648A0706D5BEF1000F03D0626C42F007
:1026100004026264BCF1000F06D55EEA050203D035
:10262000626C42F008026264626C002A3FF4DCAE25
:10263000890604D51DB1204600F090FA2068406953
:10264000616C00F0400001F00801401800F0B68015
:10265000206850E8030F216820F4907041E80302DD
:10266000BAB3206850E8030F216820F4907041E865
:10267000030272B3206850E8030F216820F49070C1
:1026800041E803022AB3206850E8030F216820F4D0
:10269000907041E80302002ADAD11AE0206850E87D
:1026A000050F216820F0010041E80502DAB1206839
:1026B00050E8050F216820F0010041E8050292B1C1
:1026C000206850E8050F216820F0010041E805026C
:1026D0004AB1206850E8050F216820F0010041E868
:1026E0000502002ADAD1206B012824D1206850E8A5
:1026F000030F216820F0100041E80302DAB12068DE
:1027000050E8030F216820F0100041E8030292B165
:10271000206850E8030F216820F0100041E8030210
:102720004AB1206850E8030F216820F0100041E80A
:102730000302002ADAD1202084F84200002020631E
:1027400020684069400640F1C180206850E8050FCC
:10275000216820F0400041E80502DAB1206850E825
:10276000050F216820F0400041E8050292B1206881
:1027700050E8050F216820F0400041E805024AB109
:10278000206850E8050F216820F0400041E805026C
:10279000002ADAD1E06B002800F0988042F651312F
:1027A000C0F600014163FDF777FF00283FF41CAE3F
:1027B000E06B416B02B0BDE8B04008472046FFF730
:1027C000D9FD0020606402B0B0BD00BF401A00BF58
:1027D000216851E8031F226821F4907142E8031335
:1027E000BBB3216851E8031F226821F4907142E8CD
:1027F000031373B3216851E8031F226821F4907119
:1028000042E803132BB3216851E8031F226821F427
:10281000907142E80313002BDAD11AE0216851E8E5
:10282000051F226821F0010142E80513DBB1216890
:1028300051E8051F226821F0010142E8051393B118
:10284000216851E8051F226821F0010142E80513C3
:102850004BB1216851E8051F226821F0010142E8CF
:102860000513002BDAD1202184F8421000212163C6
:10287000216851E8031F226821F0100142E8031388
:10288000DBB1216851E8031F226821F0100142E802
:10289000031393B1216851E8031F226821F010014E
:1028A00042E803134BB1216851E8031F226821F06D
:1028B000100142E80313002BDAD1022281B2204634
:1028C000626302B0BDE8B040FFF752BD204602B0DF
:1028D000BDE8B040FFF74EBD216A31F8022B6FF31F
:1028E0005F224260216299E5002804BF0120704701
:1028F00010B5044690F8410028B9002084F8400043
:10290000204600F063F8242084F841002068D4E9D0
:102910000212C36823F40053C360036923F44053D5
:102920001A430261D4E904231143C268194341F2F6
:102930000C639A431143C1604169A26921F440715B
:10294000114343F60002C4F201029042416103D0F8
:10295000FFF7D0FA02E000BFFFF7E0FAD4E9002366
:10296000192148439900B0FBF1F048F21F5CC5F211
:10297000EB1CA0FB0C314FF69C734909C0F6FF73AA
:1029800001FB0300322303EB0010A0FB0C03F0203B
:1029900000EA531000EB0110C3F3431108449060A8
:1029A0001069202120F490401061506920F02A0025
:1029B0005061D06840F40050D0600020606484F81A
:1029C000411084F84210606310BD0000B0B586B0BD
:1029D000006844F2004240F60004C4F20002C4F26F
:1029E0000104002190420591CDE9031102912FD0FD
:1029F00043F60001C4F2010188425AD141F21800A5
:102A0000C4F20200016841F480410160016801F4F0
:102A1000804101910199016841F004010160006861
:102A200002A900F00400019001984FF40070029098
:102A300002200390032005902046FDF787FE4FF407
:102A4000806002900020CDE90300252525E000BF2D
:102A500041F21800C4F20200426842F400324260BF
:102A6000426802F400320192019A026842F00402C4
:102A70000260006800F00400019001980920CDE98F
:102A80000201049102A92046FDF760FE0620029093
:102A90000220039003202625059002A92046FDF779
:102AA00055FE284600210022FEF7EEF82846FEF7E4
:102AB000D9F806B0B0BD00007047000070470000B4
:102AC000FEE7000080B540F67C6040F20801C2F2EB
:102AD0000000C2F20001002200F01AFC002818BF1A
:102AE000FDF712FC40F67C6040F22801C2F20000C3
:102AF000C2F2000100F042FE002818BFFDF704FCFE
:102B000040F67C6040F24C11C2F20000C2F20001BB
:102B100000F0A2F9002818BFFDF7F6FB40F67C6034
:102B2000C2F2000000F040FE002808BF80BDBDE8F2
:102B30008040FDF7E9BB0000FEE70000FEE7000073
:102B40007047000070470000FEF724B8704700008F
:102B5000406A0021C185C184FFF70CBC81B090F8A8
:102B60004210222921D183680246B3F5805F09D142
:102B700052F8281F52F8183C002B63D003685B689A
:102B80000AE000BF52F8281F13B90369002BF5D0E3
:102B900003685B6803F07F030B70116801311160FB
:102BA000C18D01390A04C18502D001B0704700BF50
:102BB0000168CA6822F02002CA60CA6822F48072E2
:102BC000CA604A6922F001024A61202180F842105D
:102BD00000214163026B012A3CD10163016851E885
:102BE000031F026821F0100142E80313DBB1016802
:102BF00051E8031F026821F0100142E8031393B16A
:102C0000016851E8031F026821F0100142E8031334
:102C10004BB1016851E8031F026821F0100142E83E
:102C20000313002BDAD101680A68D20606D5002208
:102C300000920A680092496800910099818D01B064
:102C4000FFF796BB026852686FF35F2221F8022BF0
:102C50008162A5E701B0FFF72FBF000040F210200E
:102C6000C2F20000FFF788BB41F2C040C2F2000090
:102C7000FFF782BB10B5D0F8B822CAB101EB8103CF
:102C800000EB830E5EF81C4F64B1D0F8C0C201EBBC
:102C900081030CEBC303D3F820C0B4FBFCF303FBAC
:102CA0001C433BB100242046C2F8144210BD00BFB3
:102CB000022010BD002400220023CEF8004000F0C6
:102CC0003FFD204610BD0000B0B5D0F8B852044614
:102CD00000F000FCD4F8B812C5F80C0251B1D4F8D9
:102CE000BC0205F50371C268D5F8040290470020C4
:102CF000B0BD00BF0220B0BDB0B58121044600F0D8
:102D000031FB002520460121E56200F02BFB204627
:102D10008221C4F86C5100F025FBD4F8B802256478
:102D200048B1D4F8BC0240688047D4F8B80200F03B
:102D300071FFC4F8B8520020B0BD0000D0F8BC123A
:102D400081B110B5D0F8B84294F80002FF2807D03E
:102D50008B6894F8012221469847FF2084F80002EE
:102D6000BDE8104000207047014640F2E8000A220A
:102D7000C2F200000A807047014640F26000432220
:102D8000C2F200000A807047014640F2A4004322CC
:102D9000C2F200000A807047014640F2F40043226C
:102DA000C2F200000A807047F0B581B00546007C91
:102DB0004027002808BF4FF40077284681210222CF
:102DC0003B46402400F0E0FB012628460121022278
:102DD0003B46EE6200F0D8FB2846822103220823FE
:102DE000C5F86C6100F0D0FB4FF407702E6400F062
:102DF00013FFC5F8B802A8B10746D5F8BC020068B1
:102E000080470026C7F81462C7F81862287CD7F8F4
:102E10000422002808BF4FF40074284601212346ED
:102E200000F0C6FB304601B0F0BD0000D0F8B8128B
:102E3000002904BF0220704780B590F810C0D1F877
:102E4000042240230121BCF1000F08BF4FF400739E
:102E500000F0AEFB002080BD00290EBF0220C0F8AC
:102E6000BC12002070470000D0F8B8220020C2F841
:102E700004127047D0F8B8320020C3F80812C3F823
:102E80001022704770B582B00446D0F8B86291F94C
:102E900000000D46002210F060018DF80720ADF80B
:102EA000042013D020293DD1EA88EAB1B0F1FF3FD8
:102EB00040DD6878314686F80002204686F8012217
:102EC00000F06CF80024204602B070BD68780B2832
:102ED00016D00A281CD028BB94F89C02032821D1C4
:102EE00001A9204602222EE0D4F8BC0229468368BC
:102EF0006878002200249847204602B070BD00BFC9
:102F000094F89C0203280DD10024204602B070BD25
:102F100094F89C02032805D10DF1070120460122F7
:102F200011E000BF2046294600F02CF8022420467C
:102F300002B070BDD4F8BC02314683686878984707
:102F4000EA882046314600F043F80024204602B0CB
:102F500070BD000080B5D0F8B422526890470020C0
:102F600080BD000080B513460A46002100F020FB1A
:102F7000002080BD80B513460A46002100F0E0FB2A
:102F8000002080BD10B58021044600F0ABFB204638
:102F90000021BDE8104000F0A5BB000080B513463D
:102FA0000A460321C0F894120021C0E9573300F00B
:102FB000FFFA002080BD000080B50521C0F8941202
:102FC00000210022002300F0F3FA002080BD000061
:102FD00080B513460A460221C0F894120021C0E9C8
:102FE000073300F0ADFB002080BD000080B5042158
:102FF000C0F8941200210022002300F0A1FB002061
:1030000080BD000010B540F25C24C2F200040A4604
:1030100002A0214600F012F9204610BD434443208F
:10302000436F6E666967000040F238101222C2F2E8
:1030300000000A807047000010B540F25C24C2F224
:1030400000040A4602A0214600F0F8F8204610BD10
:1030500043444320496E74657266616365000000F5
:1030600040F25C100422C2F200000A8070470000A7
:1030700010B540F25C24C2F200040A4602A02146C8
:1030800000F0DCF8204610BD53544D6963726F6543
:103090006C656374726F6E696373000010B540F203
:1030A0005C24C2F200040A4602A0214600F0C6F8E1
:1030B000204610BD53544D333220566972747561E9
:1030C0006C20436F6D506F72740000004FF2E87017
:1030D000C1F6FF70026883684FF01A0C9B18A1F8C4
:1030E00000C000F0A680B0B54FF0370C1A0F0CEB03
:1030F00013714068B3F1204F38BF02F1300140F244
:103100006012C2F20002917019014FF0000E0CEB38
:10311000117582F803E0C3F30364B1F1204F38BFA7
:1031200004F13005190215710CEB117582F805E0F8
:10313000C3F30354B1F1204F38BF04F13005190334
:1031400095710CEB117582F807E0C3F30344B1F1FC
:10315000204F38BF04F13005190415720CEB1175BE
:1031600082F809E0C3F30334B1F1204F38BF04F112
:103170003005190595720CEB117582F80BE0C3F35D
:103180000324B1F1204F38BF04F13005190615733F
:10319000C3F303140CEB1175B1F1204F4FEA037127
:1031A00003F00F0382F80DE038BF04F1300503F19E
:1031B0003704957382F80FE0B1F1204F38BF03F167
:1031C0003004010F0CEB1073147482F811E0B0F1AD
:1031D000204F38BF01F1300301010CEB11749374DF
:1031E00082F813E0C0F30363B1F1204F38BF03F15D
:1031F000300401021475C0F303530CEB1174B1F1E8
:10320000204F4FEA003182F815E038BF03F1300457
:103210000CEB1173947582F817E0C0F30340B1F121
:10322000204F38BF00F13003137682F819E0BDE873
:10323000B04040F26010C2F200007047002808BFA2
:10324000704710B50378ABB100F1020E4FF0000CDF
:103250001EF8013C93B19EF800309BB19EF80130FE
:10326000A3B19EF802300CF1040C002B0EF1040EF9
:10327000EED10DE04FF0000C0AE000BF4CF0010C65
:1032800006E000BF4CF0020C02E000BF4CF0030C63
:103290005FFA8CFC022303EB4C03138003220B70B8
:1032A0004A7090F800E0BEF1000F2ED002300222EA
:1032B0004FF0000CD3B243F0010401F803E001F831
:1032C00004C010F8013C03B3941CE4B244F0010EB6
:1032D0000B5501F80EC00378BBB1141DE4B244F0E5
:1032E000010E0B5501F80EC0437873B1941DE4B282
:1032F00044F0010E0B5501F80EC090F802E00832C0
:10330000BEF1000F00F10400D4D1BDE810407047B9
:10331000002804BF02207047D0F8B432002B1CBF35
:103320000023C0F8B432002918BFC0F8B01280B52D
:10333000012180F89C12027000F0D0F8002080BDBE
:1033400080B5D0F8C002FDF739FD40F2002202231B
:10335000C100C0F20122042838BF22FA01F3D8B21A
:1033600080BD000080B5D0F8C002FDF7FFFC40F240
:1033700000220223C100C0F20122042838BF22FA31
:1033800001F3D8B280BD0000B0B5044671B1D4F8E5
:10339000B402426942B194F89C02032804D1204649
:1033A00090470020B0BD00BF0220B0BDD4F8940209
:1033B000002818BF042805D12046802100F092F98A
:1033C0003DE000BF02283AD1D4E90810814209D972
:1033D000081A83B22062204611461A46FFF7CAFD3A
:1033E00014E000BFE169814218D3B1FBF0F202FBA7
:1033F000101098B9D4F8980281420FD220460021CB
:1034000000220025FFF7B6FDC4F89852204600219F
:103410000022002300F0CCF811E000BFD4F8B40281
:10342000C16829B194F89C02032801D1204688473D
:103430002046802100F056F92046FFF7BDFD94F8A4
:10344000A00201284FF0000004BF84F8A002B0BD24
:10345000B0BD0000B0B5044661B1D4F8B4028269D1
:1034600032B194F89C02032802D1204690472EE006
:103470000220B0BDD4F894020025052812D00328FC
:1034800026D1D4E95810814214D9091AC4F8601120
:10349000814238BF084683B2204611461A46FFF7DC
:1034A00061FD14E020460021C4F8945200F01AF99E
:1034B0002846B0BDD4F8B402016929B194F89C0241
:1034C000032801D1204688472046FFF78FFD0025BD
:1034D0002846B0BDD0F8C002FDF7A2BC10B5044626
:1034E00041F2E81045F60041C2F20000C4F20001CA
:1034F000016008210171022181710021C0F8D442CC
:10350000C4F8C00241810173FEF7E8F9002818BF32
:10351000FCF7FAFED4F8C002002100221823FDF7C0
:10352000EFFBD4F8C002802100225823FDF7E8FB0E
:10353000D4F8C00281210022C023FDF7E1FBD4F8BA
:10354000C002012100224FF48873FDF7D9FBD4F8A3
:10355000C002822100224FF48073FDF7D1FB0020CE
:1035600010BD00004AB2D0F8C00201F07F0101EBAB
:10357000810100EBC10000F5A971002A48BF00F1EC
:10358000120108787047000080B59446D0F8C00258
:103590001A466346FDF74EFC40F200220223C100AA
:1035A000C0F20122042838BF22FA01F3D8B280BD4C
:1035B00080B5D0F8C002FDF76DFC40F20022022376
:1035C000C100C0F20122042838BF22FA01F3D8B2A8
:1035D00080BD0000F0B581B00021002240230446E8
:1035E00000254026FFF7D0FF01272046802100223A
:1035F0004023C4F85871C4F86461FFF7C5FFD4F8DC
:10360000B802A761666284F89C72C4F8945265603F
:10361000C4F8A45228B1D4F8B4020021426820466C
:103620009047002001B0F0BD90F89C12042904BF1F
:1036300090F89D1280F89C120020704790F89C1220
:10364000032907D1D0F8B412C96919B180B58847E8
:10365000BDE880400020704702460020117470478A
:1036600080B5D0F8C002FEF797FA40F2002202239C
:10367000C100C0F20122042838BF22FA01F3D8B2F7
:1036800080BD0000B0B500F52A750446284600F05C
:1036900069F894F8A802B4F8AE3200F01F010122D4
:1036A0000229C4E9A52309D001290DD091B92046EA
:1036B000294600F07FF80020B0BD00BF2046294613
:1036C00000F0DAF90020B0BD2046294600F070FA7B
:1036D0000020B0BD00F08001204600F003F800207B
:1036E000B0BD000080B5D0F8C002FDF7EDFB40F2A0
:1036F00000220223C100C0F20122042838BF22FAAE
:1037000001F3D8B280BD000080B5D0F8C002FEF74A
:103710005FFA40F200220223C100C0F20122042815
:1037200038BF22FA01F3D8B280BD0000014690F8FC
:103730009C02042281F89D02002081F89C2270479F
:1037400080B5D0F8C002FDF7FDFB40F20022022355
:10375000C100C0F20122042838BF22FA01F3D8B216
:1037600080BD00000A7802704A7842704A88428020
:103770008A888280C988C1807047000000290EBFF6
:103780000220C0F8B412002070470000D0F8B42224
:10379000002A04BF0220704780B5126890470028B5
:1037A00018BF0120400080BD80B5FFF7ADFF0020AD
:1037B00080BD0000B0B582B00D460978044611F016
:1037C00060010DD0402902D0202940F04981D4F871
:1037D000B4022946826820469047002002B0B0BD5E
:1037E0006878092800F23C81DFE810F00A00240024
:1037F0003A0132003A01620086003A013A0048007C
:1038000094F89C020138022800F22A81E8880228F4
:1038100040F02681D4F8A4020322002808BF012228
:10382000214641F80C2F20460222FFF7D1FB002051
:1038300002B0B0BD94F89C020138022800F2108159
:1038400068880128C9D10020C4F8A40202E100BFA1
:1038500068880128C1D10120C4F8A402FAE000BFA1
:10386000E888012840F0FC8094F89C02411E02295F
:1038700058D20020214641F8080F57E0688840F2EE
:103880005825C1B2C2F200050229287080F0E880F4
:1038900094F89C02032851D0022840F0718000293E
:1038A00000F0D8800320616084F89C0252E000BFE1
:1038B000A888002840F0D480E888002840F0D08014
:1038C00068887F2800F2CC8094F89C12032900F0CD
:1038D000C780C5B284F89E0220462946FFF7C0FE85
:1038E0002046FFF783FB002D0CBF0120022084F847
:1038F0009C02002002B0B0BD68884FF0FF3101EBA0
:10390000102100220629ADF8062000F2A980DFE888
:1039100001F0054729A7A7555F0000BFD4F8B00202
:10392000026881E0032840F09B80211D204601228F
:10393000FFF74EFB002002B0B0BD00BF002955D0FC
:103940006068012800F08680C1B22046FFF702FBC4
:10395000297861602046FFF719FF022840F07A803D
:103960007EE000BFC0B2052800F27A80DFE800F0F8
:1039700004484C50545800BFD4F8B002426852E09A
:1039800020468021FFF7AEFE20460021FFF7AAFE69
:1039900029782046FFF7DEFA002002B0B0BD00BF54
:1039A000217CD4F8B40200290CBF816AC16A0DF1F0
:1039B000060088470146022015E000BF207C002851
:1039C0004ED1D4F8B402416B0DF1060088472FE0C8
:1039D000207C002844D1D4F8B402016B0DF106001C
:1039E000884701460720487023E000BF022084F882
:1039F0009C02002060602046FFF7ACFA2AE000BF7E
:103A0000D4F8B00282680EE0D4F8B002C2680AE0CE
:103A1000D4F8B002026906E0D4F8B002426902E0CC
:103A2000D4F8B0028269DAB1207C0DF1060190472A
:103A30000146BDF8060048B1EA883AB1904238BF65
:103A400002462046ADF80620FFF7C2FAE8880028B3
:103A50007FF4C3AE2046FFF7C9FA002002B0B0BD24
:103A600020468021FFF73EFE20460021FFF73AFE68
:103A7000002002B0B0BD0000B0B50A460978044687
:103A800011F060010CD0402901D0202970D1D4F868
:103A9000B40211468368204698470020B0BD00BF9D
:103AA00050781179C0B101282ED0032860D194F844
:103AB0009C0203282CD1508800286AD111F07F0085
:103AC00067D0D088002864D12046FFF70BFE20463F
:103AD000FFF78CFA0020B0BD94F89C02032825D093
:103AE000022808BF5FEA416042D111F0800004F172
:103AF00014014FF0140004BF4FF4AA7004F5AA712A
:103B00000022225020464DE094F89C02032839D030
:103B100002282DD148062BD02046FFF7E3FD204692
:103B20008021FFF7DFFD0020B0BD00BF01F00F00D6
:103B300000EB8000802904EB80002CBF8069D0F866
:103B40005801A8B101F07F0000EB800004EB800079
:103B500000F11405802938BF00F5AA7548061DD06C
:103B60002046FFF7FFFC002818BF012017E000BF28
:103B700020468021FFF7B6FD20460021FFF7B2FD69
:103B80000020B0BD508880B9480602D02046FFF71B
:103B9000D7FB2046FFF72AFA0020B0BD002028609E
:103BA000204629460222FFF713FA0020B0BD00008C
:103BB000B0B50D460978044611F0600118BF4029E0
:103BC00016D194F89C020138022813D8A88810F066
:103BD000FE0F0FD1D4F8B4022946826820469047E0
:103BE000E988002908BF00280ED00020B0BD00BF22
:103BF0002029E6D020468021FFF774FD20460021D1
:103C0000FFF770FD0020B0BD2046FFF7EFF9002060
:103C1000B0BD00007047000040F25C40C2F20000FE
:103C2000704700002DE9F04191F800E00246CD78A0
:103C300030F82E0047F270674FEA4E03032D20EA5A
:103C4000070409D80020DFE805F003090F0D00BFC5
:103C500044F4007408E000BF012005E044F48064EF
:103C600002E000BF44F4C06448F28007CFF6FF775B
:103C700044EA070622F8136032F8136040F60F7426
:103C8000264046EA0E06374322F813700F7B48F2AF
:103C9000800C002F52D032F8134040F60F663440AB
:103CA00048F28006022D08BF06F58076344322F8DC
:103CB0001340B2F850400E8902EB0E173C4426F038
:103CC0000106A4F80064B2F850604C89374424F02F
:103CD0000106A7F808644F7832F81310002F59D066
:103CE000490409D532F8131040F60F7739400CF526
:103CF0008047394322F8131032F81310490609D5CA
:103D000032F8131040F60F7739400CF14007394371
:103D100022F8131032F8131040F63F7739400CF1B7
:103D200020074F40012D08BF41EA0C0722F813700D
:103D300032F8131043F60F7754E000BF4E78B2F814
:103D40005080CC884FEA0E17002E24F0010651D087
:103D5000D1194144A1F8006432F81310490609D57D
:103D600032F8131040F60F7739400CF14007394311
:103D700022F8131032F8131040F63F77012D01EAB4
:103D8000070130D00CF12007794022F81310BDE86C
:103D9000F08100BF490409D532F8131040F60F77BF
:103DA00039400CF58047394322F8131032F81310CC
:103DB000490609D532F8131040F60F7739400CF157
:103DC0004007394322F8131032F8131043F60F77E7
:103DD00039400CF54057794022F8131032F813108F
:103DE00040F63F77394041EA0C0122F81310BDE854
:103DF000F08100BFD51905EB0804A4F80864B2F8F7
:103E0000504005F20C452E5B6FF39F262E53096937
:103E10003F290BD3CF06675B4FEA51164FF0FF38AF
:103E200008BF08EB511647EA86210EE061B101F0A8
:103E300001062F5B06EB510147EA8121295332F835
:103E4000131049040BD414E0295B48F20006CFF6A6
:103E5000FF763143295332F81310490409D532F85B
:103E6000131040F60F7421400CF58044214322F8D2
:103E70001310BEF1000F0BD032F8131043F60F777A
:103E800039400CF50057794022F81310BDE8F08155
:103E9000118843F60F7739400CF54057794022F8E6
:103EA0001310BDE8F081000000207047B0B50C7819
:103EB0004B78097B024630F824004CF2800C4CF21F
:103EC000800500294FEA44013AD0002B42D040043B
:103ED00008D532F8110040F60F73184040EA0C0084
:103EE00022F8110032F8110043F60F7E400640F62A
:103EF0003F7009D532F8113040F60F742340ACF50D
:103F00007F54234322F8113032F8113040F60F74F9
:103F100023402B43ACF5804522F8113032F81130A4
:103F20001840284322F8110032F81100ACF5804304
:103F300000EA0E000343002022F81130B0BD00BF9C
:103F4000F3B1400640F63F7EEED5ACF57F5540F626
:103F50000F70E3E7400408D532F8110040F60F7304
:103F6000184040EA0C0022F8110032F81100ACF5BC
:103F70007F55400640F63F7E43F60F70BAD4C3E744
:103F8000400443F60F7ECFD540F60F70C6E7000021
:103F9000002070470020704701460120A1F8400032
:103FA00000220020A1F84020A1F84420A1F85020D0
:103FB000704700000146B0F8400044F2FF020240A2
:103FC0000020A1F840207047002070470A7B0AB10A
:103FD0000020704780B50A784B7830F822C04FEA4D
:103FE0004202BBB15FEA4C6348F2A00E0BD530F839
:103FF00012C040F60F730CEA030C0EF1200343EAE3
:104000000C0320F81230C97801291BD040F63F710B
:1040100011E000BF5FEA4C414BF2800E09D530F849
:10402000121040F60F7319400EF58053194320F813
:10403000121043F60F7130F81230194081EA0E0168
:1040400020F81210BDE880400020704702460B782F
:10405000487832F823C040F63F71002848F29000BB
:1040600008BF43F60F71CFF6FF7008BF00F57F6001
:1040700001EA0C014140002022F8231070470000A3
:104080002DE9F04F82B04F78012F5FD18B690A691B
:104090000F7B934228BF1346002F00F07F80CF781C
:1040A0000C6A022F40F0C4800D7840F60F6630F89D
:1040B00025704FEA450E944206EA070648F2B00C16
:1040C00040F2148148F2B007CFF6FF77D0373E4375
:1040D000A4EB030A20F81E60C1F820A030F81E608F
:1040E000B0F850702D0176069EB200EB050800F185
:1040F000538108EB0704A4F80434D1F814B0002E5F
:1041000000F0EE820D89013600EB450505F580696A
:104110004FF0FF3505EB5604C6F34105002D4FEA7D
:10412000560700F0D5815E46CDE9004836F8028B8F
:104130005C46CB46012D2BF8048B40F0CD81D9464F
:10414000DDF80480A346009C013FB8E20A7B002A08
:1041500048D0CA78012A00F0A180022A40F0C2802B
:104160000A78002F40F07F82B0F8507013010744A6
:1041700007F20446F75A6FF39F27F7520F693F2F54
:10418000C0F04481FC064FEA57159C5B4FF0FF3CA2
:1041900008BF0CEB571544EA8525BEE11A0400F070
:1041A0006981CA88D1F814E000EB420202F5806808
:1041B0009AB201324FF0FF37C2F3410407EB520CC1
:1041C000002C4FEA520200F04281774637F8025B3A
:1041D0004646012C26F8045B40F00C81013ABE46AD
:1041E000B04634E18E690B69F21A38BF00228A6149
:1041F000B0F850700A7807444FEA021107F20C47F2
:104200007D5A38BF33466FF39F253F2B7D52C0F058
:10421000C081DC06CC5B4FEA53164FF0FF3508BF78
:1042200005EB531644EA862343F40043CB5332E2B2
:10423000E21A0F780A6230F82720B0F850403D01AA
:10424000520605444FEA470E9AB248F2B00C2C448D
:1042500000F17E80002AA4F8043400F0F1820B897A
:104260000132496900EB43034FF0FF34C2F34105CB
:1042700003F5806304EB5208002D4FEA520200F070
:104280009C810E4636F8024B1F46012D27F8044B41
:1042900040F00081013A31463B468EE18A690B6964
:1042A000D61A3CBF002613460A78002F8E6140F0D4
:1042B000F281B0F850701101074407F204477E5AAA
:1042C0003F2B6FF39F267E52C0F0AC80DC064FEA96
:1042D0005316CC5B4FF0FF3508BF05EB531644EA8D
:1042E000862644E1012002B0BDE8F08F48F2B0021A
:1042F000CFF6FF72303A324320F81E20B0F850203B
:1043000000EB05131A442304A2F8044400F0988239
:104310000A89496900EB420202F58063A2B20132C8
:104320004FF0FF34C2F3410504EB5208002D4FEA71
:10433000520200F05E810E4636F8024B1F46012DF8
:1043400027F8044B40F0B080013A31463B4650E13B
:10435000002AA4F80C3400F073824B8901324969B9
:1043600000EB43034FF0FF34C2F3410503F58063D4
:1043700004EB5208002D4FEA520200F056810E461F
:1043800036F8024B1F46012D27F8044B40F096806B
:10439000013A31463B4648E108EB0705A5F80C34E5
:1043A000D1F814B0002E00F0EF814D89013600EBFA
:1043B000450505F580694FF0FF3505EB5604C6F35A
:1043C0004105002D4FEA560700F084805E46CDE996
:1043D000004836F8028B5C46CB46012D2BF8048B47
:1043E00040F08A80D946DDF80480A346009C013F56
:1043F000B9E100BFBEF80250022CA8F804501DD14C
:1044000008F108080EF1040E023A20E0002F00F037
:10441000838007F00105F45A05EB570544EA85252A
:1044200080E000BF002B00F0A18003F001067D5A60
:1044300006EB530645EA86269EE000BFBEF8044020
:104440000EF1060EA8F8084008F10C08033ABCF17A
:10445000030F0FD3AEF10807A8F1100637F8085F75
:10446000043A26F8105F7D88B580BD883581FD88C7
:10447000B581F3D1B0F850200978024402EB011263
:1044800048F2B00CA2F804344FEA410E40F63F71F6
:10449000D8E100BF4C88022D9C8040F08980083311
:1044A0000431023A89E000BF4C88022D9C8040F024
:1044B0009B8008330431023A9BE000BF4C88022DF8
:1044C0009C8040F0AD8008330431023AADE000BF7B
:1044D0005E46F4E05E4646E16688A346A9F80460BD
:1044E000DDF80480009C022D40F0E08009F108090D
:1044F0000BF10406023FE2E06688A346A9F80460D7
:10450000DDF80480009C022D40F0248109F10809A7
:104510000BF10406023F26E1F55A48F20004CFF6FB
:10452000FF742543F552B0F850603F2F064406F261
:104530000C46F55A6FF39F25F5520BD3FC069C5B96
:104540004FEA57154FF0FF3C08BF0CEB571544EAF4
:10455000852782E0002F00F07F8007F00105F45AE4
:1045600005EB570744EA87277CE000BF7E5A48F2F4
:104570000005CFF6FF752E437E52B0F850703F2BEA
:10458000074407F20C477E5A6FF39F267E52BFF412
:1045900040AE3BB103F001067D5A06EB530345EAFA
:1045A000832302E07B5A43F400437B5273E000BF55
:1045B0008C8806311C810C33033AB8F1030FC0F02C
:1045C0003F81A1F10804103B34F8081F043A23F896
:1045D000101F61889980A1881981E188998140F62E
:1045E0003F71F1D12EE100BF8C8806311C810C3364
:1045F000033AB8F1030FC0F02381A1F10804103B86
:1046000034F8081F043A23F8101F61889980A188A4
:104610001981E188998140F63F71F1D112E100BF23
:104620008C8806311C810C33033AB8F1030FC0F0BB
:104630000781A1F10804103B34F8081F043A23F85D
:10464000101F61889980A1881981E188998140F6BD
:104650003F71F1D1F6E000BFF75A48F20005CFF6FE
:10466000FF752F43F752C969A9B130F8221044F2FF
:1046700040031940994200D069B9510030F8113017
:1046800040F60F773B4048F2B007CFF6FF773B4349
:10469000103320F8113042F6D071A1F5E0414FEA15
:1046A000420EA1F5756C43F60F71CBE0BBF80450D8
:1046B0000BF10606A9F8085009F10C09033F032C79
:1046C0000ED3083EA9F1100536F8084F043F25F82F
:1046D000104F7488AC80B4882C81F488AC81F3D1FD
:1046E0000BEB030600244E61924588BFAAEB03043E
:1046F0000C62B0F8502088BF9A4608EB02031FFAFC
:104700008AF2002AA3F80CA400F09A8049890132A9
:1047100000EB41014FF0FF33C2F3410401F580612A
:1047200003EB5208002C4FEA52026AD0354635F8A6
:10473000023B0F46012C27F8043B03D1013A2E46D9
:1047400039465EE07388022C8B8055D108310436DF
:10475000023A56E0BBF804500BF10606A9F80850DF
:1047600009F10C09033F032C0ED3083EA9F11005F3
:1047700036F8084F043F25F8104F7488AC80B48891
:104780002C81F488AC81F3D10BEB030600244E613D
:10479000924588BFAAEB03040C62B0F8502088BF92
:1047A0009A4608EB02031FFA8AF2002AA3F804A42F
:1047B00046D00989013200EB41014FF0FF33C2F3CB
:1047C000410401F5806103EB52084FEA5202A4B3A1
:1047D000354635F8023B0F46012C27F8043B03D140
:1047E000013A2E46394628E07388022C8B801FD16F
:1047F00008310436023A20E0B38806360B810C31CA
:10480000033AB8F1030F1BD3A6F10803A1F110047A
:1048100033F8081F043A24F8101F5988A18099889A
:104820002181D988A18140F63F71F1D10AE000BF12
:10483000B38806360B810C31033AB8F1030F0DD261
:1048400040F63F7130F81E20114081EA0C0120F83B
:104850001E10002002B0BDE8F08F00BFA6F10803D3
:10486000A1F1100433F8081F043A24F8101F5988E6
:10487000A18099882181D988A18140F63F71F1D129
:10488000E0E70000014600204FF43F42A1F8440059
:10489000A1F840207047000041F2E810C2F2000089
:1048A000FCF76CBBB0F844007047000070B500EB3B
:1048B0004200022B00F5806441D34FF0FF32C3F376
:1048C0004105580802EB530C55B1224632F8046BEF
:1048D0008E46012D2EF8026B08D1013817E000BF7B
:1048E0002246BCF1030F144616D229E0A288022DFD
:1048F0004A8005D101F1040E04F10802023806E0F5
:10490000228901F1060E8A8004F10C0203387146F7
:10491000BCF1030F144613D332F8106B043821F89E
:10492000086B32F80C6C21F8066C32F8086C21F830
:10493000046C32F8046C21F8026CEDD114468E46FA
:10494000D8071CBF20888EF8000070BD002070477B
:10495000002904BF8021A0F84C10002070470000FF
:10496000002B08BF7047B0B500EB420000F5806E29
:10497000581C4FF0FF32C0F3410302EB500C4FEADA
:104980005000C3B10A4632F8025B7446012B24F88A
:10499000045B07D101381146A646BCF1030F0DD2C6
:1049A0001CE000BF4A88022BAEF804201AD10EF199
:1049B000080E04310238BCF1030F0FD30839AEF1F1
:1049C000100200BF31F8083F043822F8103F4B882E
:1049D00093808B881381CB889381F3D1BDE8B0405D
:1049E000704700BF8A880631AEF808200EF10C0E21
:1049F0000338BCF1030FE1D2F0E70000FEE700004E
:104A000094B0FCF7D5F800240120CDE90F44CDE99E
:104A10000D440A900E904FF480104FF4803102251F
:104A200013900AA80294CDE90B14CDE91151FDF7BA
:104A300089FA28B1EFF3108072B600BFFEE700BF1D
:104A40000F20CDE905054FF48060CDE9080405A8E5
:104A500001210794FDF76CF920B1EFF3108072B6D5
:104A6000FEE700BF122001904FF480004FF4804A0F
:104A7000049001A8CDF80CA0FDF7D8F820B1EFF311
:104A8000108072B6FEE700BF41F21800C4F20200C7
:104A9000016840F6004841F0100101600168C4F26D
:104AA000010801F010010A910A99016808F5806671
:104AB00041F0200101600168002201F020010A910B
:104AC0000A9901684FF4005541F004010160016842
:104AD000002401F004010A910A99016841F00801DB
:104AE000016000684FF4005100F008000A900A9835
:104AF0003046FBF733FF40464FF480410022FBF77E
:104B00002DFF0A950AAD4FF00109022730462946CC
:104B1000CDE90B940D97FBF719FE40462946CDE9E8
:104B20000AA9CDE90C47FBF711FE4FF40040CDE98F
:104B30000A04404629460C94FBF708FE4FF48070A7
:104B4000CDE90A04A8F5806029460C94FBF7FEFD28
:104B500040F2E01008F5C051C2F200004FF46022AC
:104B600004730475C261C0E900148460C0F8109039
:104B7000FBF78CFC20B1EFF3108072B6FEE700BFAC
:104B800040F2E0150420C2F20005CDE90A090AA9A5
:104B900028460C94FBF7BEFB20B1EFF3108072B6F1
:104BA000FEE700BF48F2A06641F24010C0F20106E5
:104BB000A8F53841C2F2000000244FF48047C0E954
:104BC0000016C0E90244C0E90474C0E90644046266
:104BD000FBF7D0FE20B1EFF3108072B6FEE700BF06
:104BE00041F29410A8F53441C2F20000C0E9001669
:104BF000C0E90244C0E90474C0E906440462FBF75A
:104C0000B9FE28B1EFF3108072B600BFFEE700BF17
:104C100008F5305045F8300F4FF4E13700240C26EA
:104C20002846C5E90174C5E90344C5E90564EC619A
:104C3000FDF75AFE20B1EFF3108072B6FEE700BF19
:104C400041F2C040A8F54841C2F200004FF4407262
:104C5000C0E90017C0E90244C0E90446C0E90624DF
:104C6000FDF742FE20B1EFF3108072B6FEE700BF01
:104C7000FDF728FFFEE70000000000000000010231
:104C800003040607080900000000010203040102F2
:104C900002030405060708090A0B0C0D0E0F10107D
:104CA000C04C0008000000208001000050010008F6
:104CB000804D00088001002090190000B00100081C
:104CC000320132101329301B0861041A71041A9D35
:104CD000041ACD041A05041A39041113127A13A9FF
:104CE0002D1408F92C1C08852E10311A3D101A7548
:104CF000101AC904C11A89181A79041A99041A6970
:104D0000041409024313020125C03209041B0102E5
:104D10000B130524161001052401100901042402B7
:104D2000020524061701070582030815100904016E
:104D300033020A2E0705010240072A8107110937AD
:104D400044113A02441907112B0A0606112A40F0B1
:104D50002B0907500A3B04941A12171302021E4033
:104D6000830440574D1B02035913BD021B08B904AD
:104D70001AB5041AE904071E040309041A03000003
:04000005080000ED02
:00000001FF
